:020000000C945E
:100002007A030C9400000C9400000C9400000C94F1
:1000120000000C9400000C9400000C9400000C945E
:1000220000000C9400000C9400000C9400000C944E
:1000320000000C9400000C9400000C9400000C943E
:1000420000000C9400000C9400000C9400000C942E
:1000520000000C9400000C9400000C94E9170C941E
:1000620000000C94A4170C9400000C9400000C9453
:1000720000000C9400000C9400000C9400000C94FE
:1000820000000C9400000C9400000C9400000C94EE
:10009200D5170C9400000C9400000C9400000C94F2
:1000A20000000C9400000C9400000C9400000C94CE
:1000B20000000C9400000C9400000C9400000C94BE
:1000C20000000C9400000C9400000C9400000C94AE
:1000D20000000C9400000C9400000C9400000C949E
:1000E200000044535441434B454E4400485354414D
:1000F200434B454E44000600010001000200484502
:100102004C50000A0D002020436F6D6D616E64201B
:100112004C6973740A0D00202048454C5020202061
:10012200202020203A20202048656C70204D6561F7
:1001320073736167650A0D002020544553542020D3
:1001420020202020203A2020205445535420436F61
:100152006D6D616E640A0D002020444542554720B2
:1001620020202020203A2020204445425547204389
:100172006F6D6D616E640A0D0020205645523F205E
:100182002020202020203A20202056657273696F9B
:100192006E20436F6D6D616E640A0D0054455354B9
:1001A2000054657374204D6F64652025640A0D0048
:1001B20054657374204D6F64652044697361626C89
:1001C200650A0D0044454255470044656275672043
:1001D2004D6F646520456E61626C650A0D00446571
:1001E200627567204D6F64652044697361626C6556
:1001F2000A0D00436F6D6D616E64203F0A004D4F22
:100202004445203A204F43544120202020202056AC
:10021200004D4F4445203A20544150452020202093
:10022200202056004D4F4445203A2042415454204C
:10023200202020202056004D4F4445203A2045548E
:1002420043202020202020205600303600537461A5
:100252007475733A0052554E202054494D3A00535A
:10026200544F502054494D3A004155544F3A00459D
:100272004447453A004D414E203A004147494E47D6
:100282003A002532642E25647365632025642E2589
:100292003032646B676600202020202020205345E6
:1002A20054555000205052455353555245203A2040
:1002B20020202020206B676600204C494D495420A5
:1002C200282564207E20256429002054494D45209C
:1002D200202020203A202020202020736563002047
:1002E2002020202020204F4354410025642E253019
:1002F2003264002532642E25640020202020202034
:1003020020544150450020202020202020424154EA
:10031200540020202020202020455443002020206B
:1003220050524553535552452D5354455000205376
:1003320054455020202020203A20202020205354B1
:100342004550002020202020535445502D54494D23
:1003520045002044454C4159202020203A202020AD
:10036200202020736563004B793D253032582C459F
:100372004B3D253032582C53733D253032580052B4
:10038200756E3D25642C537465703D2532642C4492
:100392006C793D253264004D6F646531537465702C
:1003A200203D20256400434830203D2025642E2531
:1003B2003032646B67660049545620346D412043E5
:1003C200616C6962204D6F64652121005365742060
:1003D2005652313020202020202020202020202092
:1003E20000414430203D20256C642830782530348B
:1003F2005829004954562032306D412043616C69BE
:1004020062204D6F6465210053657420565231316C
:100412002020202020202020202020200049545667
:100422002031562043616C6962204D6F6465212042
:100432000053657420566F6C7420315620203A2583
:100442006C64004954562035562043616C69622021
:100452004D6F646521200053657420566F6C7420C3
:10046200355620203A256C640053544F50202020EA
:10047200202020200053544152542044454C4159DD
:10048200004A494720494E20202020200043594C51
:1004920020443120202020200043594C2044322087
:1004A200202020200043594C20444F574E2020202A
:1004B2000050524553535552450043594C20555014
:1004C2002020202020004A4947204F555420202038
:1004D2002000454E44202020202020202000454D91
:1004E200455247454E43592121210053414645205B
:1004F20053454E534F522100444F4F522053454EC5
:10050200534F522100505245535355524520414CAE
:100512002100524541445920202020202020200043
:1005220043594C203A2000494E202D004F55542D5E
:1005320000444F002D4E414E000001002D4E414E11
:10054200000032002C01E22CF0EB0100010001005E
:10055200040057494E444F572050524553532042AE
:100562004153453A00303600574954485359535481
:10057200454D00494E495449414C495A452E2E0099
:100582000A0D002A2A2A2A2A2A2A2A2A2A2A2A2A30
:100592002A2A2A2A2A2A2A2A2A2A2A2A2A2A2A2AB9
:1005A2002A0A0D002A202020202020202020205747
:1005B200494E444F572050524553535552452020DF
:1005C200202A0A0D002A202020202020202020205E
:1005D20020202020204265737470726F202020201A
:1005E20020202A0A0D002A2020202020202020203E
:1005F200202020323031342F31302F303220202051
:100602002020202A0A0D0050726F6D70743A3E202D
:100612000052756E203D2025642C20537465702095
:100622003D202532642C2044656C6179203D2025D3
:1006320033640A0D004B6579203D20307825303235
:10064200582C204578744B6579203D203078253030
:1006520032582C2053656E736F72203D20307825FE
:100662003032582C20456D70203D2025640A0D0043
:100672004D6F64653153746570203D2025640A0D09
:1006820000434830203D20256C64283078253034E2
:1006920058290A0D000009000002E40009000000C8
:1006A200EE0001000A0AF80001000C0AFA0001003B
:1006B2000E0AFC000100240AFE0001009F0B3C050B
:1006C2000100020A44050200060A46050200100A59
:1006D20048050200140A4A050100190A4C050100E6
:1006E2002A0A4E0501002B0A500501003D0A520557
:1006F2000000F894EE27EFBBF1E0F5BFE5BFE09311
:100702007400E0937500F8E1A895A4B7A77FA4BF91
:10071200F0936000E09360008DE0A2E0BB27ED93D0
:100722008A95E9F780E090E2A0E0B2E0ED930197CC
:10073200E9F7E8E9F6E085919591009761F0A591D6
:10074200B59105901590BF01F00105900D920197AA
:10075200E1F7FB01F0CF8CBFE0E0EEBBEFEFEDBFC6
:10076200E1E2EEBFC0E0DAE00C9492181A930A9329
:1007720000915A0B10915B0B0E94851F11F40C948F
:10078200AA040E94851F11F40C94AA04AEE8BBE0EF
:100792000E948C1FE45AF44F0F01A8E5BBE00E94AF
:1007A2008C1FE85AF54FE081D001EC93A0918E0B9B
:1007B200B0918F0BD29710F40C94E1030E94931F17
:1007C200A091580BB091590BA030E1E0BE0710F494
:1007D2000C94F103E0E0F0E0E093580BF093590B36
:1007E2000E949A1FEA3011F40C94FE030E949A1F91
:1007F200ED3011F40C94FE03ABC0E0918E0BF0913E
:100802008F0BE45AF44FA0E0A083A0918E0BB0911D
:100812008F0B119711F40C94A704E0918E0BF091B9
:100822008F0B3197E330A0E0FA0711F00C941A0411
:1008320006C0E130A0E0FA0711F00C942D04E8E4C0
:10084200E0935C0BE5E4E0935D0BECE4E0935E0B7C
:10085200E0E5E0935F0B06C0E430A0E0FA0711F098
:100862000C947B040E94A31FE0E0F1E00E94A81F09
:1008720011F00C945504E5E0F1E00E94B01FE8E0AD
:10088200F1E00E94B01FE9E1F1E00E94B01FEAE34B
:10089200F1E00E94B01FEAE5F1E00E94B01FEBE731
:1008A200F1E00E94B01F25C00E94A31FEEE9F1E013
:1008B2000E94A81F11F00C947A04E091600BEA9355
:1008C2000E94D019E093210AE03011F40C947604CE
:1008D200E3EAF1E0FA93EA93E091210A0E94B71F5A
:1008E20084E00E941C1B269604C0E2EBF1E00E9409
:1008F200B01F2CC0E530A0E0FA0711F00C94A3045D
:100902000E94A31FE6ECF1E0FA93EA93E5E0EA9392
:100912000E948C17E03011F00C94A204E091190AA5
:100922000E940F26E093190AE03011F40C949E0401
:10093200ECECF1E00E94B01F04C0E0EEF1E00E9496
:10094200B01F04C0E5EFF1E00E94B01F0E94931FA8
:1009520018CF099119910895E981E03011F00C94B2
:10096200B704EAE0F0E00E94BD1F08C0E13011F0D8
:100972000C94BF04E2E3F0E00E94BD1F0E94C81F76
:10098200E881F0E0E093490AF0934A0A229608953A
:10099200E0912D0AE03011F40C949906A091550AC9
:1009A200A13011F40C94DC04A091180AA13011F4C6
:1009B2000C94DC040AC00E94D91F0E941E1CE09104
:1009C2003B0AE460E0933B0AB2C1E0912E0AE030B8
:1009D20011F00C94EE040E94DE1FA091550AA23081
:1009E20011F40C94FB04A091180AA23011F40C9497
:1009F200FB0407C00E94DE1FE0913B0AE860E0931F
:100A02003B0AA091550AA23011F40C940F05A09153
:100A1200180AA23011F40C940F0507C0A0912E0AF7
:100A2200A73010F00C94160501C00CC00E94E41F00
:100A32000E94E91FE6E0E0932E0AE0913B0AE160A2
:100A4200E0933B0A0E94F21F0E94732811F40C9457
:100A52004B05AFE2BAE00E94FB1FA3E3BAE00E949B
:100A6200B026EF5FFF4F6F4F7F4F0E94B526A091D8
:100A72002F0AB091300A8091310A9091320A0E9475
:100A820003200E94082011F00C944A05E1E0E09353
:100A92002B0A4DC1A0912E0AA63011F00C945805D4
:100AA200E091270AE03011F40C94580501C005C00A
:100AB200E0913B0AE260E0933B0A0E940D20E09144
:100AC2002E0AE03011F00C946D05E1E00E9418202E
:100AD200E1E0E0932B0A2BC1E13011F00C947A058E
:100AE200E2E0E0932E0A0E941D20E1E0E0932B0A4F
:100AF2001EC1E23011F00C94A205E091920BE2705B
:100B020011F40C94A105A091240AA23011F00C94C6
:100B12009205E4E6F0E00E942820E3E0E0932E0A4A
:100B220008C00E942C20E5E0E0932E0AE1E0E09369
:100B3200560A0E943120E1E0E0932B0A0E943C20F9
:100B4200F6C0E33011F00C94B005E4E1F0E00E944D
:100B52002820E5E0E0932E0A0E943C20E8C0E53020
:100B620011F00C94D005E091920BE87011F40C9402
:100B7200CF05A091560AA13011F00C94CC05E6E005
:100B8200E0932E0A0E9441200E941C260E94E91F27
:100B9200E1E0E093570AE1E0E0932B0AC8C0E630B7
:100BA20011F00C940206E7E0E0932E0AE0E0E093F5
:100BB200560AA0913B0AA13011F00C94E3050E9461
:100BC2003C2004C00E9403200E94E91F0E94DE1FF5
:100BD2000E944A20E091270AE03011F40C94F405B7
:100BE2000E94552004C00E945B200E94AD04EEE1E9
:100BF200F0E060E070E00E94E91FE1E0E0932B0A80
:100C020096C0E73011F00C942D06A091180AA2307C
:100C120011F40C941306A091550AA23011F40C940D
:100C2200130606C0E8E00E9418200E945F2013C04D
:100C3200A091280AA03011F00C942606A091290A4E
:100C4200A03011F00C94260601C005C0E8E00E9415
:100C520018200E945F206BC0E83011F00C943E0611
:100C6200E091920BE17011F40C943D06E9E00E94D0
:100C72001820E1E0E0932B0A5AC0E93011F00C94FD
:100C82009806E0E0E093270AE0933B0A0E946D2079
:100C9200E0913B0AE03011F40C9452060E94742059
:100CA20004C00E9479200E94AD04E091180AE0304D
:100CB20011F00C946306A091550AA23011F40C9421
:100CC200630611C0E0E0E093180AE093550A0E941F
:100CD2007E200E9483200E9488200E9491200E94F0
:100CE20096200E942C20E091230AE03011F40C940B
:100CF2007E06E0E0E0932D0A15C0E091230AE03081
:100D020011F00C948B06E091220AE03011F40C945D
:100D12008B0601C004C0E1E0E0932D0A03C0E0E0CD
:100D2200E0932D0AE0E0E0932E0A0E94A1208EC0FB
:100D3200E0E0E0932E0A0E94E41F0E94E91F0E9455
:100D42000D20E0E0E093560AE091240AE03011F42D
:100D52000C94B506E0E0E093250AE093260A0E948F
:100D6200A7200E944A2072C0E091250AE03011F4C7
:100D72000C94D506E091920BE270E23011F40C94DF
:100D8200D406E0E0F0E0E093970BF093980BA5E92E
:100D9200BBE00E948C1F0E94B22011F00C94D4067A
:100DA200E1E0E0932B0A19C0E091920BE170E1308F
:100DB20011F40C94EE06E0E0F0E0E093950BF09372
:100DC200960BA7E9BBE00E948C1F0E94B22011F093
:100DD2000C94EE06E1E0E0932B0AE091260AE03063
:100DE20011F40C940E07E091920BE870E83011F4C4
:100DF2000C940D07E0E0F0E0E0939B0BF0939C0B6A
:100E0200A9E9BBE00E948C1F0E94B22011F00C9451
:100E12000D07E1E0E0932B0A19C0E091920BE47018
:100E2200E43011F40C942707E0E0F0E0E093990B32
:100E3200F0939A0BABE9BBE00E948C1F0E94B22098
:100E420011F00C942707E1E0E0932B0A0895E0915A
:100E52002A0AE03011F40C94D9080E94191CE0917E
:100E62003C0AE03011F00C94E107E091210AE030F5
:100E720011F40C943D07A1C0E0913E0AE03011F458
:100E82000C9444079AC0E0913D0AE13011F00C94B1
:100E920051070E94C720E0E0F2E00E94CC2020C06F
:100EA200E23011F00C945C070E94C720E3E1F2E00B
:100EB2000E94CC2015C0E33011F00C9467070E9409
:100EC200C720E6E2F2E00E94CC200AC0E43011F032
:100ED2000C9471070E94C720E9E3F2E00E94CC2043
:100EE200E2E1EA93E0E0EA93ECE4F2E00E94CC2053
:100EF2000E94D320EFE4F2E00E94CC20E0912D0A80
:100F0200E03011F40C948E07E7E0EA93E2E0EA9312
:100F1200E7E5F2E00E94CC2008C0E7E0EA93E2E0D5
:100F2200EA93E1E6F2E00E94CC20A091240AA130EB
:100F320011F00C94A3070E947920EBE6F2E00E94E4
:100F4200CC2013C0A091240AA23011F00C94B00757
:100F52000E947920E1E7F2E00E94CC2006C00E94C4
:100F62007920E7E7F2E00E94CC20E091220AE0300B
:100F720011F40C94C2070E947920EDE7F2E00E947E
:100F8200CC20E5E0EA93E1E0EA93E4E8F2E0FA93C8
:100F9200EA930E9441200E94D8200E9441200E9490
:100FA200DD200E94E2200E94D8200E94E2200E94BE
:100FB200DD2080E10E94041C64960E94EF20B7C0ED
:100FC200E53011F00C94FA070E945B20E9E9F2E0A7
:100FD2000E94CC200E9479200E94F3200E94D320FC
:100FE2000E94F620E8E5F2E060E070E00E94FF2057
:100FF2009EC0E63011F00C9413080E945B20E9E9D0
:10100200F2E00E94CC200E9479200E9409210E94D5
:10101200D3200E94F620E8ECF0E060E070E00E944D
:10102200FF2085C0E13011F00C942A080E945B2059
:10103200E1EEF2E00E94CC200E9479200E94F3208F
:101042000E94D3200E9409210E940C210E94152196
:101052006EC0E23011F00C9457080E945B20ECEF56
:10106200F2E00E94CC200E9479200E94F3200E948C
:10107200D3200E9409210E940C21E3E0F0E060E00D
:1010820070E00E94BA260E94E41F0E943E210E9444
:101092004521E4E0F0E060E070E00E94BA26E6E07C
:1010A200F0E060E070E00E943E2141C0E33011F0C8
:1010B2000C946E080E945B20E8E0F3E00E94CC20D2
:1010C2000E9479200E94F3200E94D3200E940921CD
:1010D2000E940C210E9415212AC0E43011F00C94C8
:1010E20098080E945B20E4E1F3E00E94CC200E9479
:1010F20079200E94F3200E94D3200E9409210E949D
:101102000C210E94E2200E94D8200E94E2200E942C
:10111200DD200E944E210E9445210E9441200E9412
:10112200D8200E9441200E94DD200E944E21E091A1
:101132003E0AE13011F00C94B7080E945B20EFE107
:10114200F3E00E94CC200E947920E0E3F3E00E94C9
:10115200CC200E94D320EBEBF2E0FA93EA93E2E098
:10116200F0E060E070E00E9453211CC0E23011F018
:101172000C94D3080E945B20E5E4F3E00E94CC20AB
:101182000E947920E4E5F3E00E94CC200E94D32063
:10119200EBEBF2E0FA93EA93E1E0F0E060E070E07A
:1011A2000E945321E0E0E0932A0AE1E0E0932B0A57
:1011B200E0912B0AE03011F40C94900BE0913C0A80
:1011C200E03011F00C94410BE091210AE03011F46F
:1011D2000C9422090E9458210E945B20E9E6F3E068
:1011E2000E946321E091910B0E94B71FE091920B44
:1011F2000E94B71F8CE00E94041C60960E94792016
:10120200E1E8F3E00E946821E0912E0A0E94B71FF4
:101212000E94F21F0E94BA268CE00E94041C609673
:101222000E94D320E9E9F3E00E946D210E94B71FDA
:101232000E9472210E9477210E948C210E944E21DD
:101242001EC2E0911A0AE03011F40C94C809E09130
:101252001C0AE03011F00C942F0904C0E13011F0A7
:101262000C94340993C0EA3011F00C9457090E948F
:101272005B20E9EBF3E00E94CC200E947920EEECA7
:10128200F3E00E94CC200E94D3200E9499210E9468
:101292009E210E94A3210E949E210E943E210E9423
:1012A20077210E948C210E944E2170C0EB3011F0F8
:1012B2000C947A090E945B20E5EFF3E00E94CC20B7
:1012C2000E947920EAE0F4E00E94CC200E94D32020
:1012D2000E9499210E949E210E94A3210E949E2188
:1012E2000E943E210E9477210E948C210E944E2161
:1012F2004DC0EC3011F00C94A1090E945B20EFE18B
:10130200F4E00E94CC200E947920E3E3F4E0FA9317
:10131200EA930E94A6210E94AF210E94D3200E943C
:1013220099210E949E210E94A3210E949E210E9437
:101332003E210E9477210E948C210E944E2126C0CC
:10134200ED3011F00C94C7090E945B20E5E4F4E053
:101352000E94CC200E947920E9E5F4E0FA93EA9316
:101362000E94B2210E94AF210E94D3200E949921A3
:101372000E949E210E94A3210E949E210E943E2142
:101382000E9477210E948C210E944E2178C1E09117
:101392003E0AE03011F40C94CF0971C10E94582129
:1013A200EDE0EA93E3E0EA93EEE8F2E0FA93EA93FF
:1013B200A0914F0AB091500A8091510A9091520A1D
:1013C200E4E6F0E060E070E00E94D8200E948C2108
:1013D2000E944E21E091240AE03011F40C94FE099F
:1013E2000E94BB210E94C4210E94D8200E94C421D5
:1013F2000E94DD200E944E210CC00E94BB210E944F
:10140200D3210E94D8200E94D3210E94DD200E9475
:101412004E21E0912D0AE03011F40C94800AE09103
:101422002E0AE03011F00C941D0A0E94E221EBE634
:10143200F4E00E94CC2062C0E13011F00C94280A42
:101442000E94E221E7E7F4E00E94CC2057C0E2309C
:1014520011F00C94330A0E94E221E3E8F4E00E94C6
:10146200CC204CC0E33011F00C943E0A0E94E221E1
:10147200EFE8F4E00E94CC2041C0E43011F00C947B
:10148200490A0E94E221EBE9F4E00E94CC2036C036
:10149200E53011F00C94540A0E94E221E7EAF4E0EC
:1014A2000E94CC202BC0E63011F00C945F0A0E94FF
:1014B200E221E3EBF4E00E94CC2020C0E73011F0FF
:1014C2000C946A0A0E94E221ECEBF4E00E94CC2028
:1014D20015C0E83011F00C94750A0E94E221E8EC84
:1014E200F4E00E94CC200AC0E93011F00C947F0A8B
:1014F2000E94E221E4EDF4E00E94CC20C0C0A09161
:10150200550AA13011F40C948D0AA091550AA2300B
:1015120011F40C948D0A12C0E091940BE03011F496
:101522000C949A0A0E94E221E0EEF4E00E94CC20A0
:1015320004C00E94E2210E94E721A1C0E091240A96
:10154200E03011F40C94AC0AE091290AE03011F475
:101552000C94AC0A01C012C0E091940BE03011F47B
:101562000C94BA0A0E94E221EDEEF4E00E94CC2033
:1015720004C00E94E2210E94E72181C0E091240A76
:10158200E03011F40C94CC0AE091280AE03011F416
:101592000C94CC0A01C012C0E091940BE03011F41B
:1015A2000C94DA0A0E94E221EAEFF4E00E94CC20D5
:1015B20004C00E94E2210E94E72161C0E091240A56
:1015C200E03011F40C94EC0AE091270AE03011F4B7
:1015D2000C94EC0A01C012C0E091940BE03011F4BB
:1015E2000C94FA0A0E94E221E7E0F5E00E94CC2086
:1015F20004C00E94E2210E94E72141C0E091240A36
:10160200E03011F40C940C0B0E94E221E4E1F5E0CD
:101612000E94CC2034C00E94E221E2E2F5E00E9466
:10162200CC20E091250AE03011F40C94210BE6E085
:10163200EA93E3E0EA93E9E2F5E00E94CC2008C0F5
:10164200E6E0EA93E3E0EA93EEE2F5E00E94CC20E2
:10165200E091260AE03011F40C94380BEAE0EA93A8
:10166200E3E0EA93E3E3F5E00E94CC2008C0EAE07D
:10167200EA93E3E0EA93E3EAF2E00E94CC2021C09D
:10168200E53011F00C94520B0E940C210E94EA21C9
:101692000E94F1210E94EA210E94F8210E94FD216C
:1016A20010C0E63011F00C94620B0E9403220E94DB
:1016B2000C220E94F1210E940C220E94F8210E9419
:1016C200FD21E0913E0AE13011F00C947D0BEDE03A
:1016D200EA93E1E0EA93E0EFF2E0FA93EA930E9400
:1016E2001322662777270E94AF21EEE0EA93E1E01A
:1016F200EA930E94C71B10C0E23011F00C948D0BCC
:101702000E9403220E9418220E94F1210E941822A4
:101712000E94F8210E94FD21E0E0E0932B0AE09173
:10172200270AE03011F40C949F0BE0912D0AE0306F
:1017320011F00C949E0B0E941F2218C0E0913B0AEC
:10174200E03011F40C94B30BE091940BE03011F4FF
:101752000C94AE0B0E941F2204C00E942A220E94F7
:10176200302204C00E9430220E942A22E0912D0AD7
:10177200E03011F40C94000CE091940BE03011F481
:101782000C94C90BE0910501EB7FE093050102C0C7
:101792000E943622A0912E0AA63011F00C94FF0B63
:1017A200E091270AE03011F00C94DE0BE0913B0A45
:1017B200E03011F00C94DE0B01C013C0E091940BE9
:1017C200E03011F40C94ED0BE0910501E77FE0931A
:1017D20005010E94302204C00E942A220E94302267
:1017E2000DC0E091940BE03011F40C94FB0B0E94BD
:1017F2001F2204C00E942A220E9430220EC0E091C1
:101802001B0AE03011F40C94090C0E94362205C028
:10181200E0910501EB7FE09305010895E091900BC3
:10182200E03011F40C94120EE091900BE0939E0BB9
:10183200A0919D0BAF5FA0939D0BA83C10F40C945C
:10184200270CE0919D0BE150E0939D0BA0919D0B25
:10185200AB3010F40C94BF0DE1E0E0931B0AE09171
:10186200900BE03111F00C94CC0CE0913C0AE0308A
:1018720011F00C943D0C4BC0E53011F00C94630C4C
:10188200A0919D0BAF3110F40C94540C0E943C2299
:10189200A935E2E0BE0710F40C94530CE8E5F2E03F
:1018A2000E944A220BC00E944F220E94542210F42E
:1018B2000C945F0C0E944F220E945B22E1E0E093B5
:1018C2002B0A25C0E63011F00C94880CA0919D0BD8
:1018D200AF3110F40C947A0C0E943C22A93CE0E057
:1018E200BE0710F40C94790CE8ECF0E00E944A2256
:1018F2000BC00E944F220E94602210F40C94850CAF
:101902000E944F220E945B22E1E0E0932B0AE091C9
:101912003E0AE13011F00C94AB0CA0919D0BAF315B
:1019220010F40C949C0C0E94672210F40C949B0CF3
:101932000E9474220BC00E947B220E94802210F41B
:101942000C94A70C0E947B220E945B22E1E0E093B0
:101952002B0A20C0E23011F00C94CB0CA0919D0B0D
:10196200AF3110F40C94BD0C0E94672210F40C9459
:10197200BC0C0E9474220BC00E947B220E94802217
:1019820010F40C94C80C0E947B220E945B22E1E0BE
:10199200E0932B0AA5C0E03211F00C94710DE09196
:1019A2003C0AE03011F00C94D70C4BC0E53011F03A
:1019B2000C94FD0CA0919D0BAF3110F40C94EF0C24
:1019C2000E9485221B9710F40C94EA0C0E948A2232
:1019D20004C0E0E0F0E00E944A220AC00E94902285
:1019E20010F00C94F90C0E944F223197FE93EE9363
:1019F200E1E0E0932B0A25C0E63011F00C94220DB1
:101A0200A0919D0BAF3110F40C94150D0E9485220C
:101A12001B9710F40C94100D0E948A2204C0E0E07F
:101A2200F0E00E944A220AC00E94902210F00C9418
:101A32001F0D0E944F223197FE93EE93E1E0E09357
:101A42002B0AE0913E0AE13011F00C944B0DA0916B
:101A52009D0BAF3110F40C943C0D0E9495221D9702
:101A620010F40C94370D0E949A2204C0E2E0F0E0D8
:101A72000E94A2220BC00E949522139710F40C948C
:101A8200470D0E947B223197FE93EE93E1E0E093B3
:101A92002B0A26C0E23011F00C94710DA0919D0B1F
:101AA200AF3110F40C94630D0E9495221C9710F430
:101AB2000C945E0D0E949A2204C0E1E0F0E00E94C4
:101AC200A2220BC00E949522129710F40C946E0D64
:101AD2000E947B223197FE93EE93E1E0E0932B0A82
:101AE200A091900BA13811F00C94BE0DE091220A46
:101AF200E03011F40C94BE0DE0E0E0939D0B0E94E7
:101B02005520E0912D0AE03011F00C94B20DE0E086
:101B1200E093230AE03011F00C94B10DA091280A51
:101B2200A03011F00C94A80DA091290AA03011F058
:101B32000C94A80DE091930BE03011F00C94A80DD9
:101B4200E091270AE03011F00C94A80D01C003C007
:101B52000E94A72205C00E947420E1E0E0932B0AB4
:101B62000CC0E1E0E093230AE03011F40C94BE0DC6
:101B7200E0E0E0933B0A0E94A12052C0A091900BAA
:101B8200A13811F00C94110EA091180AA13011F491
:101B92000C94D20DA091550AA13011F40C94D20DDF
:101BA20006C0E2E0E093180AE093550A39C0E091DA
:101BB200220AE03011F00C94EB0DE091240AE0309F
:101BC20011F40C94EB0DE0912D0AE03011F00C941D
:101BD200EB0D01C025C0E0E0E093220AA091280AA3
:101BE200A03011F00C94080EA091290AA03011F037
:101BF2000C94080EE091930BE03011F00C94080E57
:101C0200E091270AE03011F00C94080E01C003C0E5
:101C12000E94A72205C00E947420E1E0E0932B0AF3
:101C2200A1C3E0919E0BE03011F40C948911E4E61B
:101C3200F0E0E0933F0AF093400AA0919D0BAA3096
:101C420010F00C948710E0919E0BE23011F00C948E
:101C52002B0E5BC2E43011F00C94300E56C2E83009
:101C620011F00C94080FE0913E0AE03011F40C944C
:101C7200600EE13011F00C944E0E0E9413220E946D
:101C8200B1220E94B622E2E0E0933E0A0E94C22202
:101C92000E94C7220E94AD0411C0E23011F00C94E0
:101CA2005F0E0E9413220E94CD220E94D222E1E006
:101CB2000E94DC220E94C7220E94AD0476C0A0913D
:101CC2003C0AA13010F40C946B0EA53010F00C9469
:101CD2006B0E01C03EC0E0913C0AE0933D0AE6E093
:101CE200F0E00E946D210E94E322E0913C0AE13083
:101CF20011F00C947F0E0E94E82220C0E23011F015
:101D02000C94880E0E9401230E940E2317C0E33018
:101D120011F00C948F0E0E94E82210C0E43011F0F2
:101D22000C949F0E0E941B230E9483200E9420235A
:101D32000E94D91F0E9483200E9429230E943223DD
:101D42000E941B230E943A230E9443230E94AD0457
:101D52002CC0E0913C0AE53011F00C94C40E0E94B4
:101D620047230E9420230E941B230E943A23E6E07D
:101D7200E0933C0A0E944E230E944A220E9443237F
:101D82000E94AD0412C0E63011F00C94D60E0E94EF
:101D920047230E9429230E94D91F0E9453230E9495
:101DA20032230E9443230E94AD04E0911A0AE030DC
:101DB20011F40C94E30EA0911C0AAA3010F40C94B6
:101DC200E30E01C023C0E0911C0AEC3011F00C9428
:101DD200F50E0E94D91F0E949E210E9488200E9417
:101DE2007E200E9459230EC0ED3011F00C94030F97
:101DF2000E94D91F0E949E210E9461230E9491206D
:101E02000E946A230E945B200E94AD047EC1E031E1
:101E120011F00C94B50FE0913E0AE03011F00C94F1
:101E2200890FE0913C0AE03011F00C94400FE091F0
:101E3200240AE03011F00C943F0F0E94DE1FE09163
:101E4200920BE27011F00C942D0FE091920BE17065
:101E520011F00C942D0F0FC0E091260A0E940F265C
:101E6200E093260AE03011F40C943A0F0E943120DC
:101E720002C00E944A20E1E0E0932B0A48C0E13010
:101E820011F00C94450F04C0E23011F00C944A0F8B
:101E920004C0E33011F00C944F0F04C0E43011F091
:101EA2000C94630FA0913C0AAF5FA0933C0AA5304B
:101EB20010F40C945F0FE4E0E0933C0AE1E0E0935D
:101EC2002A0A25C0E53011F00C94760F0E944F22A9
:101ED2000E94542210F40C94720F0E944F220E940E
:101EE2005B22E1E0E0932B0A12C0E63011F00C9481
:101EF200880F0E944F220E94602210F40C94850FDA
:101F02000E944F220E945B22E1E0E0932B0A27C04D
:101F1200E0913E0AE13011F00C949E0F0E947B2268
:101F22000E94802210F40C949A0F0E947B220E943D
:101F32005B22E1E0E0932B0A12C0E23011F00C9434
:101F4200B00F0E947B220E94802210F40C94AD0FED
:101F52000E947B220E945B22E1E0E0932B0A0E9416
:101F62005B200E94AD04D1C0E03211F00C946110EC
:101F7200E0913E0AE03011F00C943510E0913C0AF9
:101F8200E03011F00C94EE0FE091240AE03011F0F1
:101F92000C94D20FE091260AE03011F00C94D20F8B
:101FA20001C01AC00E94DE1FE091920BE47011F48E
:101FB2000C94EA0FE091250A0E940F26E093250A6D
:101FC200E03011F40C94E80F0E941D2002C00E9420
:101FD200A720E1E0E0932B0A46C0E13011F00C9417
:101FE200F30F04C0E23011F00C94F80F04C0E33098
:101FF20011F00C94FD0F04C0E43011F00C94111098
:10200200A0913C0AA150A0933C0AA03011F00C947C
:102012000D10E1E0E0933C0AE1E0E0932A0A23C0DC
:10202200E53011F00C9423100E94902210F00C94D1
:102032001F100E944F223197FE93EE93E1E0E0934E
:102042002B0A11C0E63011F00C9434100E94902239
:1020520010F00C9431100E944F223197FE93EE93B0
:10206200E1E0E0932B0A27C0E0913E0AE13011F053
:102072000C944A100E949522139710F40C94461067
:102082000E947B223197FE93EE93E1E0E0932B0ACC
:1020920012C0E23011F00C945C100E94952212974B
:1020A20010F40C9459100E947B223197FE93EE9308
:1020B200E1E0E0932B0A0E945B200E94AD0425C060
:1020C200E03411F00C948610E0911A0AE03011F419
:1020D2000C947210A0911C0AAA3010F40C94721085
:1020E20001C00CC0A0911C0AAF5FA0931C0AAC30C7
:1020F20010F40C947F10EAE0E0931C0A0E945B202B
:102102000E94AD04E1E0E0932A0A01C1E0919E0B36
:10211200E23011F00C94A910E0913E0AE03011F087
:102122000C94A810E0913C0AE03011F40C949D103C
:10213200E0E0E0933C0A03C0E1E0E0933C0A0E9445
:1021420070230E944A220E9475230E94AD04DFC0C0
:10215200E43011F00C94F310E0912D0AE03011F00C
:102162000C94C010A0913C0AA03011F00C94C01045
:10217200E0913E0AE03011F00C94C01001C02DC075
:10218200A091240AAF5FA093240AA33010F40C9408
:10219200CD10E0E0E093240AA091240AA13011F0CE
:1021A2000C94D610E2E0E093240AE1E0E0932A0ADC
:1021B200E0E0E093220A0E947923E091240AE030D1
:1021C20011F40C94EE100E94E41FE093370AF0938E
:1021D200380A6093390A70933A0A0E9479200E9461
:1021E200AD0495C0E83011F00C94F81090C0E031C5
:1021F20011F00C94FD108BC0E03211F00C9402111E
:1022020086C0E03411F00C941B11E091210AE030F9
:1022120011F40C941A11E1E0E0931A0AE0E0E09361
:102222001C0AE4E6F0E060E070E00E9480230E9475
:1022320089236DC0E83411F00C943B11E0912D0A12
:10224200E03011F00C942C11A0913C0AA03011F056
:102252000C942C1101C009C0E091220A0E940F26A1
:10226200E093220AE1E0E0932A0A0E9479200E9488
:10227200AD044DC0E03311F00C944E11E091210AEF
:102282000E940F26E093210AE0E0E0931A0AE1E0BF
:10229200E0932A0A0E9489233AC0E23411F00C9496
:1022A2006A11E0911A0A0E940F26E0931A0AE1E0ED
:1022B200E0932A0AE0911A0AE03011F40C946511B5
:1022C200EAE0E0931C0A02C00E942C200E948923AB
:1022D2001EC0E43411F00C948811E0912D0AE03014
:1022E20011F00C947B11A0913C0AA03011F00C94D7
:1022F2007B1101C00CC0E0913E0A0E940F260E9491
:10230200DC220E94A2220E9475230E94AD0423C0F7
:10231200E0913F0AF091400A309711F40C94981121
:10232200E0913C0AE03011F40C94981101C013C002
:10233200AFE3BAE00E948F23E0913F0AF091400A96
:10234200309711F00C94AC11E0E0E0933C0A0E944B
:1023520075230E94AD04E0E0E0931B0AE0939D0B1D
:10236200E0939E0B08951A930A93E0910A0AF09162
:102372000B0A0E949523662777270E9462268F0107
:10238200A0912E0AA53011F00C94DA11E091550AB1
:10239200E03011F00C94DA11E091180AE03011F0FB
:1023A2000C94DA11E091560AE03011F00C94DA1133
:1023B20001C04AC0E091920BE87011F40C9425120E
:1023C200E0910C0AF0910D0A309711F40C94EE1181
:1023D200ACE0BAE00E948F2337C00E949E230E9485
:1023E200812810F40C942512F801A091530AB0919F
:1023F200540AEA0FFB1FE093530AF093540A0E9417
:102402009E230E94862810F40C940D120E947023C1
:10241200E093530AF093540AE091530AF091540A5C
:102422000E9428200E949E230E94862810F40C9469
:102432001F12E1E0E093560A0E946D200E94C22220
:10244200E0930C0AF0930D0A0991199108952497CB
:10245200E091570AE03011F40C943C120E94AD2333
:10246200A233E0E0BE07E0E08E07E0E09E0710F452
:102472000C943C1201C026C00E94B6230E94BD23C8
:102482000E94CC250E947B2810F00C9451120E94CD
:10249200BD230E94C2230E94C2250E9428200FC091
:1024A2000E94BD230E94CC250AC00E94BD230E9427
:1024B200C2230E94BF260E94C7250E942820E0E076
:1024C200E093570A249608952497A091240AA230F3
:1024D20011F00C947912A0912E0AA63011F00C94EE
:1024E2007912E0913B0AE03011F00C94791201C0AC
:1024F2001DC00E94B6230E94AD23A436E0E0BE07B1
:10250200E0E08E07E0E09E0710F40C9497120E9420
:10251200BD230E94BF260E94C7250E94CF23F397A6
:1025220010F40C949712E1E0E093270A24960895A0
:102532007B816A81F981E88177FB770F67FD7160A2
:10254200972F9E5781F078F0983190F4AA27BB27F5
:10255200882708948795B795A7959A95D1F7EA2386
:10256200FB23682305C0E8947727EE27FF27662719
:102572006F77769508F4606877F9A991B991899196
:102582009991EA17FB076807790797FB08950E945C
:10259200D3230E94BA260E9499120E94D82321F4C2
:1025A2000E94D32324960895DEF70E94DD23E0E003
:1025B200F0E060E87FE30E94E22324960895E09130
:1025C200C000E07211F00C94E712F9CFE881E093B9
:1025D200C600219608951A930A93AC81BD810E9488
:1025E200A626309711F40C941413AA81BB810E9481
:1025F200A6268F01309711F00C9400130DC0023003
:10260200E0E01E0710F40C941313F80131978F01C8
:10261200AA81BB81ED93FC93AC81BD810E948C1F8A
:10262200AE81A08304C0EE81EA930E94E012198178
:102632000881279608950E94E723E0E8EA83EFE302
:10264200EB830E948D28EE85FF85EF3FAFEFFA07FF
:1026520011F00C943513E885F985FA93EA93E6E3D1
:10266200F5E00E94EC230895EF3FAFE7FA0711F07F
:102672000C944413E885F985FA93EA93E7E3F5E0CD
:102682000E94EC230895AB85A73010F40C944B13F1
:10269200E6E0EB871B85E12F1150E03011F40C943A
:1026A20055130E94F423F7CF0E9403240E9473283B
:1026B20011F00C94601330E00E94F42332C03B8589
:1026C2000E94082409F010F40C9474130E94F4235D
:1026D2000E94082410F40C9473130E9413240E9485
:1026E2001824F6CF0FC00E94082410F00C94811316
:1026F2000E9413240E9424240E942B243150F3CFE1
:102702000E94F4230E9403240E9430240E942B245E
:102712000E94082410F40C9492130E9413240E9425
:10272200182410E0EB85E11710F40C94CF13AC8160
:10273200BD818E819F810E9437240E9430240E9495
:10274200BA260E94C812EC83FD836E837F830E94A7
:1027520013240E940E280E94FF260E2F0E943E2460
:102762000E9445240E9404260E943827AC81BD8124
:102772008E819F810E94C0270E9413240E94E2231F
:102782000E942B24E12F1F5FE03011F40C94CA1336
:10279200C9CF0E943E24EEE2EC93C4CF0E944A24A9
:1027A200AA85A083303014F00C94DC130E943E24DE
:1027B200EDE2EC9331953A3014F40C94EA130E9452
:1027C2004A24BF01A32FEAE00E944A26E05DDB0112
:1027D200EC930E944A24BF01A32FEAE00E948726BD
:1027E200E05DDB01EC93A885B985E0E0EC930E9403
:1027F200942860960895EF972F970E948B2810E0F7
:10280200FE01EC5AFF4F0190F081E02DE88BF98B2D
:10281200DE01A65ABF4F0E948C1FE4912E2FE0309A
:1028220011F40C947716E12FE03011F00C9422147D
:10283200253211F00C941F1411E002C00E945124A1
:1028420054C2E13011F00C944714253211F00C946B
:102852002E140E94512410E048C212E0E0E0EB8BFB
:1028620000E02D3211F00C94381401E03EC22B32FC
:1028720011F00C943F14EBE2EB8B37C2203211F0D3
:102882000C944614E0E2EB8B30C204C0E23011F04B
:102892000C94541450E013E0203311F00C945314B0
:1028A200006823C204C0E33011F00C947414203386
:1028B20010F40C9461142A3310F00C94611401C0CA
:1028C20009C0A52FEAE0EA9FF0015E2FE22FE05354
:1028D2005E0F0BC240E02E3211F00C94721414E021
:1028E20004C219C004C0E43011F00C9494142033D3
:1028F20010F40C9481142A3310F00C94811401C04A
:102902000AC00062A42FEAE0EA9FF0014E2FE22FF4
:10291200E0534E0FEAC12C3611F00C94931402606E
:1029220015E0E3C104C0E53011F00C947616E22FF5
:10293200E33611F00C94A9140E9460240E946724CB
:102942000E946024A481AA930E946E24CDC104C077
:10295200E53411F00C94AE1404C0E53611F00C9479
:10296200B31404C0E63611F00C940515FE017496FA
:10297200EA87FB870E947C240E9483240E948A2487
:10298200A985AA2312F40C94CD14AB89AB3211F0B1
:102992000C94CC1409C013C00E948D240E94CC2632
:1029A2000E949224EDE2EB8B07FF05C0EB89EA93CC
:1029B2000E946E2404C00E949724AB89A08305FD67
:1029C20001C046E0263611F00C94F3140E948D24C7
:1029D2000E94BA264A93EF85F889FA93EA930E94F5
:1029E20099160CC00E948D240E94BA264A932A93FB
:1029F200E889F989FA93EA930E941C13FE017496FE
:102A02000E949E2429C004C0E33711F00C941115D2
:102A12000E948A240E94A6240E949E2411C004C0FF
:102A2200E03711F00C9433150E948A240E94A624E8
:102A3200EA87FB87FA93EA930E9481171E2F0860A8
:102A42000F77403011F40C942B15411710F00C94B1
:102A52002B1501C001C0142F40E0E0E0EA8B30E00A
:102A62007FC004C0E43611F00C94381504C0E93676
:102A720011F00C943E15046004C0E53711F00C947B
:102A82005715EAE0EA8B01FF08C0E0E0FAEC6AE9D8
:102A92007BE30E942B241AE026C0E0E1F7E260E02B
:102AA20070E00E942B2415E01EC004C0E83511F02E
:102AB2000C945D15086004C0E83711F00C9475168B
:102AC200E0E1EA8B01FF08C0E0E0F0E060E070E1E5
:102AD2000E942B2418E007C0E0E0F0E160E070E023
:102AE2000E942B2414E0403011F40C947A150F77D5
:102AF20001C041E001FF08C00E948A240E947C2498
:102B020014960E94832413C002FF09C00E948A24E3
:102B12000E94A6240E940A260E94922408C00E94B3
:102B22008A240E94A624662777270E94922402FF05
:102B320016C0A985AA2312F00C94A7150E948D2411
:102B42000E94D6250E949224EDE2EB8BEB89E030C5
:102B520011F40C94AF151F5F4F5F01C00B7F342F30
:102B620000FD19C0151710F00C94BC15351710F0A4
:102B72000C94BC1501C00FC007FF08C002FF04C0BF
:102B82000B7F2B89115001C020E301C020E20E947B
:102B920051245150E7CF141710F00C94E615006140
:102BA20002FF08C00E94AC2411F40C94D9155150B4
:102BB20011504150E0E3EA930E946E24503011F428
:102BC2000C94E41551504150E6CF312FEA89E030A0
:102BD20011F00C940916303011F40C94081603FF0E
:102BE20007C00E949724E491EA930E946E2408C0D1
:102BF200AA85BB85ED91AA87BB87EA930E946E24C2
:102C0200503011F40C94061651503150E4CF60C08C
:102C12000E94C0240E9462262E2F2A3010F40C94A7
:102C2200181603FF02C0295C01C0295A01C0205DA9
:102C320004FF01C02DC0213310F00C942D160E9408
:102C42001324A130E0E0BE07E0E08E07E0E09E073B
:102C520011F40C942D1601C012C0431710F40C94F9
:102C6200341620E30CC0531710F40C943B1600FDED
:102C720001C001C014C020E207FF0AC020E30061C6
:102C820002FF06C00E94AC2411F40C944916515064
:102C92000E945124503011F40C945016515031506E
:102CA2000E94C0240E9496260E949224EA890E94D1
:102CB2001324FF27662777270E9462260E942B246F
:102CC2000E9403240E94732811F40C946916A0CF69
:102CD20000FF0AC0503011F40C9475165150E0E216
:102CE200EA930E946E24F6CF10E092CD0E949228C1
:102CF200EF966D9608952297EE81FF81E883F9831E
:102D02000E94C7240E94C724FE0134960E94CC244C
:102D12000E94FC13A881B981E0E0EC932896089503
:102D2200E991F99130971AF4E095F095319608956A
:102D32000E94E723E0E0EA83EFE3EB831A930A932E
:102D4200EB85FC85EF3FAFEFFA0711F00C94B2165A
:102D5200EE81FF81FA93EA93EEE3F5E00E94CF243D
:102D62000895EF3FAFE7FA0711F00C94C116EE8118
:102D7200FF81FA93EA93EFE3F5E00E94CF240895EE
:102D8200AC85AA2312F00C94D216E985FA856B85DC
:102D92007C850E94CC260E94D7240E94DC24EDE28E
:102DA200EC93A885A73010F40C94D916E6E0E887D6
:102DB2001885E12F1150E03011F40C94E7160E94AF
:102DC200E3240E9437240E94E824F3CF0E94ED24DA
:102DD2000E9472270E94D72410E0E0E0F0E060E851
:102DE2007FE30E94E8240E94ED240E94532810F4FD
:102DF2000C9403170E94E3240E9424240E94E824D6
:102E02001F5FF1CF103011F00C940C170E94DC24DC
:102E1200E0E3EC932DC0E12F1150E03011F40C945B
:102E220039170E94E3240E9437240E9430240E9412
:102E3200BA260E94C8120E94E8240E94ED240E9431
:102E42000E280E94FF260E2F0E94DC240E94452499
:102E52000E94E324FF27662777270E9438270E94D3
:102E6200C0270E94F6240E94E2230E94D724D3CFD7
:102E7200E885E03011F00C9441170E94FB2408957C
:102E82000E94DC24EEE2EC93E885E150E887EF5FF4
:102E920011F40C9469170E94F6240E9424240E94C3
:102EA200D724E985FA856B857C850E94FF260E2F43
:102EB2000E94DC240E9445240E94F624FF276627F4
:102EC20077270E9438270E94E2230E94D724DCCF72
:102ED2000E94FB240895E991F991A991B991CD013C
:102EE20005900D920020E1F7FC010895A991B99196
:102EF200EE27FF276D91662311F03196FBCF0895DF
:102F0200AA27BB27E991F9910590002011F01196AB
:102F1200FBCFFD010895002411246991E991F991F3
:102F2200A991B991662349F06A951D900590011403
:102F320021F40020B9F7EE2708951018E1F3E1E03B
:102F420008F4E2500895AA93BA93EA93FA93EFB77A
:102F5200EA931A930A931091C0000091C600E12FE0
:102F6200EC7111F00C94CC17E0915A0BF0915B0BC1
:102F7200E85AF54F0083AAE5BBE00E940325E03042
:102F8200A1E0FA0710F40C94CC17E0E0F0E0E09333
:102F92005A0BF0935B0B09911991E991EFBFF991EB
:102FA200E991B991A9911895EA93EFB7EA931A9327
:102FB2000A931091C8000091CE00E12FEC7111F03C
:102FC2000C94E31709911991E991EFBFE9911895D2
:102FD2000A921A929A93AA93BA93EA93FA93EFB740
:102FE200EA93EEE8E6BDA0E0BAE00E940325A7EA74
:102FF200BBE00E940325E43FA1E0FA0710F40C9421
:103002000B18E1E0E093A60BE0E0F0E0E093A70B01
:10301200F093A80BA091A70BB091A80BEAE0F0E007
:103022000E949326309711F00C948818E6B1E0952F
:10303200E093A90BE091AD0BA091A90BEA1711F057
:103042000C942718E091A90BE093900BE091A90B47
:10305200E093AD0BEFB1E095E093AB0BE091AF0BDA
:10306200A091AB0BEA1711F00C943B18E091AB0B5B
:10307200E093920BE091AB0BE093AF0BE09109016F
:10308200E095EF70E093AA0BE091AE0BA091AA0B32
:10309200EA1711F00C945118E091AA0BE093910BEE
:1030A200E091AA0BE093AE0BE9B1E095E170E093F9
:1030B200AC0BE091B00BA091AC0BEA1711F00C94A1
:1030C2007018E091AC0BE093930BE091930BE0301E
:1030D20011F40C946F18E1E0E093550A11C0E091ED
:1030E2002D0AE03011F00C947D18A091550AA13000
:1030F20011F00C947D1801C003C0E0E0E093550A82
:10310200E091AC0BE093B00BE1E0E093A50BE99109
:10311200EFBFF991E991B991A9919991199009900B
:103122001895E0E8E0936100E0E0E0936100E7EFEA
:10313200E2B9EBEFE1B9EFEFE5B9E0E0E4B9EFEFC7
:10314200E8B9E0E0E7B9EFEFEBB9E8E0EAB9EFEFB1
:10315200EEB9E2E0EDB9EFEFE1BBE0E0E0BBEFE3B7
:10316200E4BBE0E0E3BBEFEFE0930201E093010197
:10317200E0E0E0930501EFEFE0930401E0E0E0938B
:103182000801EFEFE0930701E0930B01E0E0E09329
:103192000A01E4BDE3E0E5BDEEE8E6BDE0E0E7BD3F
:1031A200E8BDE0938000E0938100E0938500E09326
:1031B2008400E0938700E0938600E0938900E09327
:1031C2008800E0938B00E0938A00E0938D00E09307
:1031D2008C00E093B600E093B000E093B100E0937E
:1031E200B200E093B300E093B400E0939000E09368
:1031F2009100E0939500E0939400E0939700E093B0
:103202009600E0939900E0939800E0939B00E0938E
:103212009A00E0939D00E0939C00E093A000E0936D
:10322200A100E093A500E093A400E093A700E0933F
:10323200A600E093A900E093A800E093AB00E0931E
:10324200AA00E093AD00E093AC00E0932001E0938C
:103252002101E0932501E0932401E0932701E0930B
:103262002601E0932901E0932801E0932B01E093EA
:103272002A01E0932D01E0932C01E0936900E09391
:103282006A00EDBBE0936B00E0936C00E0936D008D
:10329200E0936800E1E0E0936E00E0E0E0936F000D
:1032A200E0937000E0937100E0937200E09373008A
:1032B200E093C000E8E9E093C100E6E0E093C200D9
:1032C200E0E0E093C500E3E0E093C400E0E0E093D7
:1032D200C800E8E9E093C900E6E0E093CA00E0E054
:1032E200E093CD00E3E0E093CC00E0E0E093D10096
:1032F200E0933101E0E8E0BFE0E0E0937B00E0939F
:103302007F00E0937A00ECBDE093BC0078940E94C9
:10331200B11C0E94B703E091A50BE03011F40C94AC
:103322009719E0E0E093A50B0E94C01EE091A60B66
:10333200E03011F40C94A819E0E0E093A60BE091C0
:10334200940B0E940F26E093940B0E94231FE1CF5F
:10335200FFCF0E94092500E010E0EA81FB810E17F1
:103362001F0710F00C94B8190F5F1F4FF6CF198189
:10337200088124960895E0E0F0E0E093000AF093DB
:10338200010AE881F981A091000AB091010AAE1701
:10339200BF0710F00C94CE19F4CF22960895A8819D
:1033A200A03314F40C94DA19AA3314F00C94DA1939
:1033B20001C004C0E881E05321960895A881A13498
:1033C20014F40C94E919AB3514F00C94E91901C00A
:1033D20005C0E881E154E65F21960895A881A136EF
:1033E20014F40C94F919AB3714F00C94F91901C0C8
:1033F20005C0E881E156E65F21960895EFEF219638
:10340200089521960895F99B01C0FDCFE981FA81C3
:10341200F2BDE1BDE881E0BDFA9AF99A23960895DA
:10342200EA81FB81FA93EA93EA81FB81EA930E94A3
:10343200041AEA81FB813196FA93EA93EA81FB81CD
:10344200E070EF2FF0E0EA930E94041A24960895A8
:103452000E94C7240E940E25EF7FF070607070708A
:103462000E94132531960E941925E070FF7F60703B
:103472007070DF01CB01E8E00E94F3250E94132562
:1034820032960E941925E070F0706F7F70700E9472
:10349200FF250E94132533960E941925E070F070D3
:1034A20060707F7FDF01CB01E8E10E94F325EA93A0
:1034B2000E94041A269608951A93F99B01C0FDCF23
:1034C200E981FA81F2BDE1BDF89A10B5E12F1881C8
:1034D200239608950E940925EA81FB8131960E9474
:1034E2001C250E2F1127102F0027EA81FB810E9435
:1034F2001C25F0E00E2B1F2BF80119810881249660
:1035020008950E94E7230E94202533960E941C25DD
:10351200FF27662777270E94262532960E941C25C0
:103522000E9432250E94262531960E941C250E9467
:1035320032250E943A25E8E00E94E7250E94D8231E
:103542000E94C7240E945D1A0E9432250E943D25D6
:1035520026960895E881E03011F00C94C21AE091A9
:10356200C000E07211F00C94B71AF9CFE981E09330
:10357200C600E091C000E07411F00C94C11AF9CFBA
:1035820044C0A881A13011F00C94D91AE091C8006E
:10359200E07211F00C94CE1AF9CFE981E093CE00DB
:1035A200E091C800E07411F00C94D81AF9CF2DC044
:1035B200A881A23011F00C94F01AE091D000E072D0
:1035C20011F00C94E51AF9CFE981E093D600E0916D
:1035D200D000E07411F00C94EF1AF9CF16C0A88154
:1035E200A33011F00C94061BE0913001E07211F04F
:1035F2000C94FC1AF9CFE981E0933601E091300195
:10360200E07411F00C94061BF9CF22960895A9815B
:10361200BA81EC91E03011F40C941A1BEA93E9811F
:10362200EA930E94AB1AE981FA813196E983FA831F
:10363200EECF23960895FF920E944025FE01329616
:10364200FA93EA93E0E0EA930E94081B1981088149
:10365200EF96A796FF9008950E9409251098109A58
:10366200109800E010E00031E0E01E0714F00C9426
:10367200501BE02FA0E0B0E80E94DE25AA81BB81AA
:10368200EA23FB23309711F40C94491B149A01C0CE
:1036920014981398139A13980F5F1F4FE4CF109A40
:1036A20019810881249608950E948B2800E010E079
:1036B20020E030E040E050E01198119A1198EE813C
:1036C200FF81309711F40C94691B20E030EC02C0AA
:1036D20020E030E840E050E04031E0E05E0714F0E6
:1036E2000C948E1B000F111FE42FA0E0B0E80E9483
:1036F200DE25E223F323309711F40C94821B149AF3
:1037020001C01498029B02C0016001C000601398BE
:10371200139A13984F5F5F4FDFCF119AF8010E94FF
:103722009228289608950E945C251798E881E093D4
:103732000201159A15980E945C2521960895E2E3EC
:10374200F0E00E946225179AE881E0930201159A3F
:103752001598219608950E946625169815980E943C
:103762006625E8E3EA930E94941B0E9466250E9464
:10377200EF200E946625E1E0EA930E94941BE6E0B6
:10378200EA930E94941B0E9466250895E881E03026
:1037920011F00C94D21BE981E058EA930E94941B29
:1037A2001EC0E13011F00C94DC1BE981E054EA9375
:1037B2000E94941B14C0E23011F00C94E71BE981C3
:1037C200EC56EA930E94941B0AC004C0E33011F045
:1037D2000C94E61BE981EC52EA930E94941B229618
:1037E2000895A881B981EC91E03011F40C94021C87
:1037F200EA930E94A01BE881F9813196E883F9835C
:10380200F0CF22960895FF920E9440250E946925DA
:103812000E9469250E94C71BFE013296FA93EA9321
:103822000E94F21B19810881EF96A796FF900895D6
:10383200E1E0EA930E94941B08950E94E7230E940C
:1038420020253097662777270E943A25EFEFFFE081
:1038520060E070E00E941C260E943A25E4E8F3E052
:1038620060E070E00E9462260E94D823E881F9811C
:10387200FA93EA930E942D1B269608950E94E7234D
:10388200E0E0EA83EB830E94D91F0E949E210E94FE
:10389200D8230E94A6210E94DD230E94862810F0D0
:1038A2000C94571C0E94A6210E94D8230E94B22188
:1038B2000E94DD230E94812810F00C94641C0E9457
:1038C200B2210E94D8230E9471250E94D3230E9414
:1038D200C7250E943A25E4E8F3E060E070E00E9428
:1038E2001C260E94D8230E9471250E94B2210E94A8
:1038F200C7250E94DD230E9462260E943D250E9468
:103902003D25249608950E94AC1B0E945B20E4E5AD
:10391200F5E00E94CC20E2E1EA93E0E0EA93E7E6F8
:10392200F5E00E94CC200E947920EAE6F5E00E94B0
:10393200CC200E94D320E5E7F5E00E94CC200E9433
:10394200EF200E94D91F0E941E1C0E94DE1F0E94AF
:103952004A200E947A250E94A7200E947A25089573
:10396200E0910501E160E0930501E0910501E2606B
:10397200E09305010E9436220E942A220E943022F0
:10398200E0910801EB7FE09308010E94A120E0E0B2
:10399200E093550A0E94841CEFEFF3E00E94802519
:1039A200339711F40C94021D0E94D91F0E945323D5
:1039B2000E941B230E947023FA93EA930E94111A19
:1039C2000E947923E6E0F0E0FA93EA93E0913D0A5F
:1039D2000E94E3220E947E200E9459230E9491208D
:1039E2000E946A230E94B6220E94D222EFEFF3E0E5
:1039F200FA93EA93E3E0F0E0FA93EA930E94111A51
:103A020043C0E4E0F0E00E948025E093240AE6E06F
:103A1200F0E00E948025E0933D0AA0913D0AA53086
:103A220010F40C94171DE4E0E0933D0A0E947E20FE
:103A32000E9483200E9488200E9491200E9496204A
:103A4200E0E1F0E00E9480250E94B122A0910A0AE2
:103A5200B0910B0A1B9710F40C94331DE6E0F0E0D2
:103A62000E94B122E2E1F0E00E9480250E94CD2274
:103A7200A0910E0AB0910F0A1B9710F40C94451DE9
:103A8200E1E0F0E00E94CD22E0913D0AE13011F048
:103A92000C944E1D0E94842520C0E33011F00C943A
:103AA200551D0E94842519C0E23011F00C945E1D50
:103AB2000E940E230E94012310C0E43011F00C94E6
:103AC2006E1D0E94D91F0E9483200E9429230E94FA
:103AD2001B230E9483200E942023E2E8F5E00E943B
:103AE200B01FE5E8F5E00E94B01FE6EAF5E00E94AB
:103AF200B01FE7ECF5E00E94B01FE8EEF5E00E948F
:103B0200B01FE5E8F5E00E94B01FE7E6F5E00E948D
:103B1200B01FE9E0F6E00E94B01F0E94AC1B0E94B9
:103B22002C200E943F1C0E9479200E94AD04E0E0FC
:103B3200E093210AE0931A0A0895E0914B0AF0916A
:103B42004C0A309711F40C94AD1DABE4BAE00E941C
:103B52008F230E948F255AC0E0914D0AF0914E0AA0
:103B6200309711F40C94BC1DADE4BAE00E948F238F
:103B72000E9495254BC0E091490AF0914A0A30977C
:103B820011F40C94CB1DA9E4BAE00E948F230E9489
:103B9200C81F3CC0E091550AE03011F00C94D81DCA
:103BA200E091180AE03011F00C94D81D12C0E09197
:103BB2002D0AE03011F40C94E91DE091940BE030F1
:103BC20011F40C94E71D0E948F2502C00E949525D6
:103BD2001DC0E091270AE03011F40C94051EE0911B
:103BE2002D0AE03011F00C94021EE091940BE030AB
:103BF20011F40C94FF1D0E948F2502C00E9495258E
:103C020002C00E948F2502C00E94952508950E943D
:103C1200E723E0E0EA83EB83E0911A0AE03011F453
:103C22000C94BE1EE0911D0AF0911E0A60911F0ABB
:103C32007091200A0E94732811F40C94501EADE179
:103C4200BAE00E94FB1FA0911C0AA23011F00C9452
:103C52004F1E0E94B6230E94DD23A33CE1E0BE0773
:103C6200E0E08E07E0E09E0710F40C94411E0E94F3
:103C72009B250E94A2250E94C2250E9461230EC09C
:103C82000E949B250E94A2250E94CC25A093140A83
:103C9200B093150A8093160A9093170A6EC0E091AA
:103CA2001C0AE03011F00C94651E0E94B1250E949E
:103CB2001E1CECEDF5E060E070E00E9480230E94A3
:103CC2005B200E94AD0459C0E13011F00C94821EB9
:103CD2000E94B1250E949E210E9488200E947E207F
:103CE2000E945923E2ECF1E00E942820E4EFF1E087
:103CF20060E070E00E9480230E945B200E94AD047D
:103D02003CC0E23011F00C949B1EE0911C0AEF5F64
:103D1200E0931C0A0E9491200E946A230E942C2098
:103D22000E94E41F0E948023E0E0E0931A0A0E94AE
:103D3200892323C0EA3011F00C94A41EE5E0F0E0E0
:103D42000E9428201AC0EB3011F00C94AD1EE4E85A
:103D5200F3E00E94282011C0EC3011F00C94B61E42
:103D6200E5E0F0E00E94282008C0ED3011F00C944C
:103D7200BE1EE4E8F3E00E942820249608950E94E3
:103D8200C9040E9428070E949E1D0E94081EA0913D
:103D92002C0AAF5FA0932C0AA150AA3010F40C9405
:103DA200221FA091240AA23011F00C94DA1E0E9464
:103DB200B4110E940F0CE0E0E0932C0A0E9428123A
:103DC2000E946512E091920BE07211F40C94ED1EC8
:103DD200E0E0E093280A03C0E1E0E093280AE091E2
:103DE200920BE07111F40C94FA1EE0E0E093290AC0
:103DF20003C0E1E0E093290AE0912D0AE03011F0DE
:103E02000C94071FE0E0E093180A18C0E0912D0A15
:103E1200E03011F40C941B1FE091280AE03011F0FD
:103E22000C941A1FE091290AE03011F00C941A1F29
:103E320001C001C003C0E1E0E093180AE1E0E093B1
:103E42002B0A08951A930A93E091940BE03011F42F
:103E52000C94311FE0910501EE7FE093050105C04E
:103E6200E0910501E160E0930501E091190AE0307B
:103E720011F40C94821FE3E1F6E00E946821E091C4
:103E82002E0A0E94B71F0E94F21F0E94BA268CE0DF
:103E92000E941C1B2E96E7E3F6E00E946321E0914C
:103EA200910B0E94B71FE091920B0E94B71FE09105
:103EB200930B0E94B71F80E10E941C1B6296E2E7EF
:103EC200F6E00E946D210E94B71F84E00E941C1B35
:103ED2002696E3E8F6E00E94CC240E949E210E94EE
:103EE200A3210E949E210E94B725E3E8F6E00E94EA
:103EF200CC240E949E210E94A3210E949E210E9406
:103F0200B725099119910895A091580BB091590BB9
:103F12000A171B070895ED91FD913196FE93EE93DA
:103F220031970895E0E0F0E0E0938E0BF0938F0B71
:103F32000895E0918E0BF0918F0B3197E45AF44F74
:103F4200E0810895ECE5FBE0FA93EA930895FA9391
:103F5200EA93E4E0EA930E948C17E0300895FA9322
:103F6200EA9380E00E941C1B22960895FF27662791
:103F720077270E94BA260895E093450AF093460AED
:103F8200EAE0F0E0E093470AF093480A0895E091EE
:103F9200450AF091460AE0934B0AF0934C0AE091ED
:103FA200470AF091480AE0934D0AF0934E0A0895A9
:103FB200E0E0F0E0FA93EA930895E8ECF0E0FA9397
:103FC200EA930C941E1CE0E0F0E060E070E00895DB
:103FD200E0932F0AF093300A6093310A7093320A09
:103FE2000895E0912F0AF091300A6091310A7091A0
:103FF200320A08950E94B0263197604070400E94B4
:10400200B5260895EAE0F0E060E070E008950E94CD
:1040120096260E94732808950E94E41FE093330AB3
:10402200F093340A6093350A7093360A0895E09348
:104032002E0A0E940320CCCFE0910801E160E093B8
:104042000801E0910801ED7FE09308010895FA93D9
:10405200EA930C941E1CE091060AF091070AF7CF2E
:10406200E0910801EB7FE0930801E0910801E8602C
:10407200E09308010895E4E6F0E060E070E0A8CF84
:10408200A091020AB091030A8091040A9091050A54
:10409200B9CFE0910801E460E0930801E0910801E2
:1040A200E77FE09308010895E1E0EA93E2E0EA9312
:1040B2000C94AD04E0E0EA93EA930895E0910801DC
:1040C200E260E0930801E0910801EE7FE0930801CD
:1040D200E1E0E0932B0A0895E0E0F0E0E093530A78
:1040E200F093540A0895E1E0EA93EA930C94AD0444
:1040F200E0E0EA93E1E0EA930895EAE0F0E0FA937F
:10410200EA9308950E946B1A662777270895E09331
:10411200100AF093110A6093120A7093130A089519
:10412200ECE0F0E0FA93EA9308950E94821AE09399
:10413200140AF093150A6093160A7093170A0895E9
:10414200E1E0E0932A0AE0932B0A0895E091080146
:10415200E260E0930801E0910801EE7FE09308013C
:10416200089566277727E093370AF093380A609319
:10417200390A70933A0AA091370AB091380A8091AD
:10418200390A90913A0A0E94032041CFEDE0EA9366
:10419200E0E0EA930895FA93EA9380E00E94041C17
:1041A20024960895E0E0EA93E2E0EA9308950E94FB
:1041B20062260E94BA2608950E9496260E94BA2676
:1041C2000895A091060AB091070A8091080A909179
:1041D200090AE4E6F0E060E070E00895ECE0EA93BA
:1041E2000C94941BE6EAF2E0D6CFEBEBF2E0FA9302
:1041F200EA930E94E41F0E94BA2608950E94BA26FA
:1042020088E00E94041C2C96EFE0EA930C94941B25
:10421200ECECF2E0C0CFECE0EA93E1E0EA93EDEE01
:10422200F2E0FA93EA930895E5E0F0E060E070E0EE
:104232000E94BA26E2E3F0E060E070E00E94BA2653
:1042420088E00E94041C2C96ECE0EA93E2E0EA93F8
:10425200E5EFF2E0FA93EA93EBE0F0E060E070E081
:104262000E94BA26E7E0F0E060E070E00E94BA2621
:1042720088E00E94041C2C9608950E94BA2688E0C9
:104282000E94041C2C960895ECE0EA93E2E0EA9383
:10429200E5EFF2E0FA93EA93089588E00E94041CA5
:1042A2002C9608950E94BA260E940320A7CF0E944E
:1042B2003F1CE0934F0AF093500A6093510A7093A7
:1042C200520A0895FA93EA93E091900B4FCEFA9333
:1042D200EA93E0912D0A4ACEFA93EA93E0913C0ADE
:1042E200089584E00E94041C28960895E0E0EA9371
:1042F200E3E0EA93E8EAF3E0FA93EA93A0914F0A43
:10430200B091500A8091510A9091520AE4E6F0E08D
:1043120060E070E04CCFA0914F0AB091500A8091BA
:10432200510A9091520AE4E6F0E060E070E044CF76
:10433200E3EEF3E0FA93EA933BCE0E94551B662725
:10434200772708950E94BA2633CEE091100AF091A1
:10435200110A6091120A7091130A08950E94BA26F6
:10436200C0CFE091140AF091150A6091160A70917B
:10437200170A0895E0E1EA93E2E0EA93E5EFF2E05A
:10438200FA93EA930895A091330AB091340A809186
:10439200350A9091360A0E9403200E946226DF01AC
:1043A200CB0130CEA091370AB091380A8091390AF8
:1043B20090913A0A0E9403200E946226DF01CB01FB
:1043C20021CEE0E0EA93E3E0EA930895E6EDF3E03C
:1043D200E2CEA091410AB091420AE4E6F0E00895EB
:1043E2000E944F26662777270E94BA2608950E94C8
:1043F20093266627772741CFEFE0EA93E1E0EA933D
:104402000C94C71BECE0EA93E1E0EA93E5EFF2E0FB
:10441200FA93EA930895A091410AB091420AEAE020
:10442200F0E00895E091430AF091440A0895A091C2
:10443200430AB091440AEAE0F0E00895E0910501F0
:10444200E860E0930501E0910501EF7EE09305014C
:104452000895E0910501E860E09305010895E09177
:104462000501E061E09305010895E0910501E46032
:10447200E09305010895E091410AF091420A3A96CB
:10448200E093410AF093420AA091410AB091420A94
:104492000895E093410AF093420A0895A1E4BAE034
:1044A200ED91FD9108953196FE93EE93E935A2E0E8
:1044B200FA0708953197FE93EE9331960895319657
:1044C200FE93EE93E93CA0E0FA0708950E941322BE
:1044D2003A96E093430AF093440AA091430AB091BA
:1044E200440A1B970895EAE0F0E0E093430AF09350
:1044F200440A0895A3E4BAE0ED91FD91089531963E
:10450200FE93EE933B970895A091410AB091420A1F
:104512000895E091410AF091420A3A97BACF0E9477
:1045220085220E9477280895A091430AB091440AF7
:1045320008950E9413223A97E093430AF093440AA3
:104542000895E093430AF093440A0895E0E0E0936B
:104552003C0AE1E0E0932D0AE0E0E0933B0AF0CD73
:10456200E0930A0AF0930B0A0895E0E1F0E0FA936F
:10457200EA93E0910A0AF0910B0AFA93EA930C94F7
:10458200111AE0910E0AF0910F0A08950E94A222D8
:10459200E1E0E0932A0A8ECDE0930E0AF0930F0A2F
:1045A2000895E2E1F0E0FA93EA930E94C222FA93BC
:1045B200EA930C94111AE0933E0AE0910A0AF091F0
:1045C2000B0A0895F0E0FA93EA930C94111AE6E2CA
:1045D200F2E060E070E0E093060AF093070A60936D
:1045E200080A7093090AE5E7F0E060E070E0E09302
:1045F200020AF093030A6093040A7093050A08956D
:10460200ECE2F1E060E070E0E093060AF093070A62
:104612006093080A7093090A0895EEE2F0E060E000
:1046220070E0E093020AF093030A6093040A709325
:10463200050A0895E2E0F0E0FA93EA930895E09320
:10464200060AF093070A6093080A7093090A08950C
:10465200E093020AF093030A6093040A7093050A36
:104662000895E5E0E0933C0AE091060AF091070A1A
:1046720010CFE091060AF091070AFA93EA930E949A
:10468200111AE9CCE1E0E0932A0A14CDE091410A43
:10469200F091420A662777270895E091020AF09185
:1046A200030A08950E944E23FA93EA930C94111A76
:1046B200E091100AF091110AFA93EA930C94111AFC
:1046C200E093140AF093150A6093160A7093170A7E
:1046D20008950E94B2210E94BA260C94291AE091F0
:1046E200060AF091070A0895E1E0E0932A0A00CD54
:1046F200E4E0F0E0FA93EA93E091240A63CFE093D6
:104702001D0AF0931E0A60931F0A7093200A0895EF
:10471200E1E0EA93E0E0EA930C94AD04ED91FD91BF
:104722003197FE93EE930895A091060AB091070A7D
:104732008091080A9091090A0895E091060AF09181
:10474200070A6091080A7091090AA091530AB09170
:10475200540A882799270895A091330AB091340A00
:104762008091350A9091360A08950E943F1CE88391
:10477200F9836A837B830895E881F9816A817B8169
:10478200D3CF0E94BF260E94C725FA93EA930E94C4
:1047920091160E949523662777270895FA93EA9344
:1047A2000C949116E881F9816A817B810895E883EE
:1047B200F9836A837B830895A881B9818A819B8169
:1047C20008950E94BF260E946B2708952497E0E077
:1047D200E883E9830895FA93EA930E946C170E9492
:1047E200942860960895AC81BD818E819F81E0E01E
:1047F200F0E060E271E40E94C027EC83FD836E83E7
:104802007F830895EC85FD856E857F850895EC8113
:10481200FD816E817F81AC85BD858E859F850E94DD
:1048220053280895AC85BD858E859F850895EDEC4E
:10483200FCEC6CEC7DE30E94C027EC87FD876E8761
:104842007F873F5F0895E0E0F0E060E271E40E945C
:10485200C0270895EC87FD876E877F870895A0E0C3
:10486200B0E080E09FE30E9472270895EDECFCEC3B
:104872006CEC7DE30E94C0270895A885B985119646
:10488200A887B98711970895E02FE05DEC93E02F98
:104892000895E885F9853196E887F9873197089573
:1048A2002A93FE01E95AFF4F0190F081E02DFA931D
:1048B200EA93FE017396FA93EA930C94EC12FE01CA
:1048C200E85AFF4F0190F081E02D08953497DE0100
:1048D200A85ABF4FED93FC930895FE01E95AFF4F8A
:1048E2000190F081E02DFA93EA93FE017396FA9318
:1048F200EA930C94EC12DE01A85ABF4F0D90BC91C2
:10490200A02D08950E94AA26EE83FF8368877987E7
:1049120008950E946024DACFEE81FF81688579854F
:104922000895EE83FF83688779870895EA85FB857A
:104932003196EA87FB8731970895EA87FB87FA93D6
:10494200EA930E9477171E2F08950E947C241496E2
:104952000E94A62608950B7FEB89EA93FE01E95A8D
:10496200FF4F0190F081E02DFA93EA93FE01E95A9C
:10497200FF4FFA93EA930E94EC12503008950E947E
:104982000324AE81BF81888599850895EC81FD81DC
:10499200FA93EA930895FA93EA930ACBFA93EA9385
:1049A2000E946C17198108812D960895E987FA876C
:1049B2006B877C870895AE81BF811196AE83BF83DA
:1049C20011970895AA81BB818C819D810895EA8304
:1049D200FB836C837D830895EA81FB816C817D81F9
:1049E200A985BA858B859C850895A985BA858B850D
:1049F2009C850895AE81BF81E0E0EC931981088126
:104A02002D960895ED91FD913196FE93EE930895C2
:104A12001A930A9300E010E00895EA81FB816C8109
:104A22007D810895EA930E94041AEC81FD81089524
:104A3200FA93EA93F2CFFA93EA930C945D1AE0E0C8
:104A4200EA83EB83EC81FD8108950E94D8230E94C2
:104A5200DD23E8E00E94E7250E94D823EC81FD8156
:104A620008950E94DD23FF27662777270E94D1251C
:104A720008950E94D823A0CE0E94D82393CEF82E68
:104A8200EF97A5971A930A93DE01AE59BF4F0E9482
:104A9200BE258D01FE013296FA93EA93DE01A859F2
:104AA200BF4F0E94BE250E94A626FA93EA931A934C
:104AB2000A930C947C16E8ECF0E0FA93EA930C94D7
:104AC200AA19FA93EA930C94AA19E8E8F3E1F9CF48
:104AD200DE01A759BF4F0E94BE25EC91EA930895CB
:104AE200A091100AB091110A8091120A9091130AB2
:104AF2000895E0EDF7E0FA93EA930C94BC19FA9367
:104B0200EA930C946B1AE5E7F0E060E070E00E9433
:104B12002923E6E2F2E060E070E091CDE091050148
:104B2200E062E09305010895E0910501EF7DE093D5
:104B3200050108950E94D323E25CF1406040704079
:104B42002DCEA5E0B0E00E941426A091140AB091E7
:104B5200150A8091160A9091170A662777270895F9
:104B6200E0911C0AEF5FE0931C0A22CA0E94BA2657
:104B720088E00E941C1B2A9608950024AF0DB01DE8
:104B82000895EA0FFB1F681F791F0895EA1BFB0BAC
:104B9200680B790B0895AE1BBF0B860B970B08951C
:104BA200EA2BFB2B682B792B0895F0956095709575
:104BB200E195FF4F6F4F7F4F0895EE230E2EFD01BB
:104BC20021F0F695E7950A94E1F70895EE230E2E6B
:104BD200FD01BC0131F0EE0FFF1F661F771F0A9423
:104BE200D1F70895EE230E2EFD01BC0131F076952A
:104BF2006795F795E7950A94D1F70895E62FF72F71
:104C020060E070E00895FE2FFF0FFF0B6F2F7F2FE4
:104C120008956F2F660F660B762F0895EE23E1E05D
:104C220009F0EE270895FA9FF02DEB9FF00DEA9F11
:104C3200E02DF10D08957A9F702D6B9F700DF89FF6
:104C4200700DE99F700D6A9F602D710DFB9F600DC5
:104C5200711DE89F600D711D8827FA9FF02D610D6F
:104C6200781FEB9FF00D611D781FEA9FE02DF10D7B
:104C7200681F781F0895002498E0AA0F001C0E1ADE
:104C820010F40E0E01C0A1609A95B9F7EA2FA02D7B
:104C920008954FD0F0DF0EF4E19508950024112419
:104CA20090E1AA0FBB1F001C111C0E1A1F0A18F458
:104CB2000E0E1F1E01C0A1609A9599F7FD01D00149
:104CC20008953F934F935F9300241124442755275F
:104CD20030E2AA0FBB1F881F991F001C111C441F22
:104CE200551F0E1A1F0A460B570B28F40E0E1F1ED5
:104CF200461F571F01C0A1603A9559F7FD01BC013B
:104D0200D001CA015F914F913F910895E894A7FFA6
:104D120002C0A1956894E7FDE195ADDFEA2F0EF49C
:104D2200E1950895BBDFFD010895CBDFFD01BC01D4
:104D32000895E894E7FF02C0E1956894A7FF04C0D4
:104D4200A19500F8039400FA0895ED91FC91119752
:104D52000895ED91FD916D917C9113970895ED91D8
:104D6200FD916D917D9108957E936E93FE93EE93E6
:104D720008957A936A93FA93EA930895182E862FE8
:104D8200612D192E972F712D1B2EBF2FF12D1A2E4B
:104D9200AE2FE12D089530976040704009F07058B1
:104DA2000895552342F4503811F4E0FF04C03196BF
:104DB200691F791F6BF050E8572711F45F93CDC03C
:104DC2005F3F31F0660F000C57956795752F089578
:104DD2005F9300200AF0CDC0C6C050E8192E1522FC
:104DE200880F991F9527550F879550E8072E0522A2
:104DF200660F771F7527550F67950895689401C050
:104E0200E8945F93F2DF703818F07F3F08F4A5C092
:104E120056E1571BAAF4519558300EF4593030F030
:104E2200EFEFFFEF6FEF7FE777F91AC07727552390
:104E3200B9F0EE0FFF1F661F771F5A95D1F710C00A
:104E42007727583028F0EF2FF62F672F5850F9CFD9
:104E5200552331F076956795F795E7955A95D1F7F1
:104E620000200AF4A2DE5F910895689401C0E894DC
:104E7200309760407040B1F0002426F0772312F49E
:104E8200009493DE172E7EE1112032F07A95EE0F18
:104E9200FF1F661F111CF9CFEF2FF62F612D5F93B5
:104EA2008ADF5F9108954F93AF01FD01DA01AB01F3
:104EB200BC01CA01402D012C142E4F910895EA0F16
:104EC200FB1F681F0895E095F0956095EF5FFF4F17
:104ED2006F4F08955F9381DF903871F150E8152686
:104EE20004C05F937ADF903839F1703821F1572F7F
:104EF200591B13F112F4D7DFFACF583118F0AA2751
:104F0200BB278827583028F0AB2FB82F8827585056
:104F1200F9CF552329F08695B795A7955A95D9F7D4
:104F2200502D512562F0CBDF38F46795F795E79560
:104F3200739513F41EC0B7DF3EDF5F910895EA1B3D
:104F4200FB0B680B51F010F40094BDDF6623A2F353
:104F5200EE0FFF1F661F7A95CBF7EE27FF27662716
:104F620077275F910895EFEFFFEF6FE77FEF5F9194
:104F72000895EFEFFFEF6FE77FE75F9108955F938B
:104F82002CDF703851F3903841F301240894791FD3
:104F920023F41CF300203AF3ECCF0F921F932F93CC
:104FA2003F934F93112722279927689FA0018F9F34
:104FB200302D410D591F6B9F300D411D591F8E9F82
:104FC20027D0BF9F25D06A9F23D0BE9F1DD0AF9F01
:104FD2001BD0AE9F110D291F391F491F591FE32FE7
:104FE200F42F652F522F4F913F912F911F910F90C8
:104FF20066232AF0550FEE1FFF1F661F02C073952E
:105002004BF2CFDE5F910895100D211D391F02C0B2
:10501200200D311D491F591F08955F93DEDE703840
:1050220021F411200AF49FCFA4CF903809F495CF30
:1050320001240894970B1BF4D4F30020F3CF792FAB
:105042001F932F933F934F93112411272227332726
:105052004427552790E2AE17BF078607410730F075
:10506200AE1BBF0B860B410B089401C08894551FE1
:10507200221F331F111CAA1FBB1F881F441F9A9592
:1050820051F7F901612D4F913F912F911F916623A5
:1050920032F0550FEE1FFF1F661F7A9543F281DE35
:1050A2005F91089599239AF0772342F0971748F079
:1050B20029F4AE17BF07860720F031F09894889440
:1050C20008959894089408951894889408957723DD
:1050D200C2F7971798F3A9F7EA17FB07680788F34F
:1050E20099F3ECCF309760407040089500240A167F
:1050F2000B06089500240A160B06080609060895F1
:10510200EA17FB07680779070895AE17BF078607F6
:10511200970708955A934A933A932A931A930A93B4
:1051220008955D814C813B812A811981088108950E
:00000001FF
